:100800004C4344204F6B002A2A2A2A2A2A2A2A2AC1
:100810002A2A2A2A2A2A2A2A2A2A2A2A2A2A2A0D55
:100820000A002A2A2A2A2A2A3830353120546573A8
:1008300074732A2A2A2A2A2A2A2A0D0A0050726543
:100840007373203120666F72204C434420746573AB
:10085000740D0A005072657373203220666F722027
:100860004C454420746573740D0A004C4344207455
:1008700065737465640D0A004C4544207465737497
:1008800065640D0A00496E636F727265637420744B
:100890006573742E205061737320636F7272656389
:0B08A00074206E756D6265720D0A0019
:040C1E00C101C1004F
:100AE200E4F5A0C282C280C2817F38FE120BC81216
:100AF2000B697F067E00120BC8120B697F0C7E0009
:100B0200120BC8120B697F017E00120BC8120B690F
:070B12007F807E00020BC88A
:040B69007F047E0087
:100B6D00E4FDFCC3ED9FEC9E5015E4FBFA0BBB00BE
:0F0B7D00010ABA01F8BB7EF50DBD00010C80E442
:010B8C002246
:1008AB008E088F098B0A8A0B890C7C277D10120905
:1008BB009EEF243012096AAE08AF097C277D101217
:1008CB00099E7E037FE8CFCDCFCECCCE12099EEF13
:1008DB002430AB0AAA0BA90C90000112097CAE08BC
:1008EB00AF097C037DE812099E7E007F64CFCDCFDC
:1008FB00CECCCE12099EEF2430AB0AAA0BA90C90DA
:10090B00000212097CAE08AF097C007D6412099EBF
:10091B007E007F0ACFCDCFCECCCE12099EEF2430F6
:10092B00AB0AAA0BA90C90000312097CAE08AF0905
:10093B007C007D0A12099EED2430AB0AAA0BA90C90
:06094B0090000402097C8B
:100BC800C280C281D2828FA07F0A7E00120B6DC2C2
:020BD800822277
:100BDA00D280C281D2828FA07F0A7E00120B6DC2A0
:020BEA00822265
:100B44008B0E8A0F8910AB0EAA0FA91012095160DF
:100B5400130510E5107002050F14F9120951FF1264
:050B64000BDA80E22223
:100BEC00758920758DCC759850D28ED2ACD2AF222F
:080C16008F993001FDC201229B
:060B19007BFF7A0879075A
:100B1F008B0E8A0F8910AB0EAA0FA9101209516004
:100B2F00130510E5107002050F14F9120951FF1289
:050B3F000C1680E2220B
:090C0C00E4FF3000FDC200AF99C5
:010C150022BC
:03002300020BFCD1
:100BFC00309905C299D20132309804C298D2003291
:100B8D007F807E00120BC87BFF7A087900120B4420
:0E0B9D007FD07E07120B6D7F017E00020BC819
:100BAB009000007590FF7FF47E01120B6D75900F16
:0C0BBB00120B6DA3E5826404458370E713
:010BC700220B
:100A7F00E4F50D75900F120AE2120BEC120B197BB5
:100A8F00FF7A087922120B1F120B197BFF7A087954
:100A9F003D120B1F7BFF7A087954120B1F120C0C9F
:100AAF008F0DE50D24CE600E047016120B8D7BFF9B
:100ABF007A08796B8011120BAB7BFF7A08797880FB
:100ACF00067BFF7A087985120B1F7F647E00120B5D
:030ADF006D80CA5D
:030000000209F3FF
:0C09F300787FE4F6D8FD758120020A3AF6
:10095100BB010689828A83E0225002E722BBFE02A4
:09096100E32289828A83E49322D7
:10096A00BB010689828A83F0225002F722BBFE016C
:02097A00F32266
:10097C00F8BB010DE58229F582E5833AF583E8F0B1
:10098C00225006E92582C8F622BBFE05E92582C85D
:02099C00F22245
:10099E00BC000BBE0029EF8DF084FFADF022E4CC3D
:1009AE00F875F008EF2FFFEE33FEEC33FCEE9DEC06
:1009BE00984005FCEE9DFE0FD5F0E9E4CEFD22ED4C
:1009CE00F8F5F0EE8420D21CFEADF075F008EF2F96
:1009DE00FFED33FD4007985006D5F0F222C398FD87
:0509EE000FD5F0EA2224
:1009FF00020A7FE493A3F8E493A34003F68001F285
:100A0F0008DFF48029E493A3F85407240CC8C333F8
:100A1F00C4540F4420C8834004F456800146F6DFC7
:100A2F00E4800B0102040810204080900C1EE47E2D
:100A3F00019360BCA3FF543F30E509541FFEE493BC
:100A4F00A360010ECF54C025E060A840B8E493A383
:100A5F00FAE493A3F8E493A3C8C582C8CAC583CAAE
:100A6F00F0A3C8C582C8CAC583CADFE9DEE780BE66
:010C220000D1
:00000001FF
