:03000000020200F9
:10000B002401758C00758A00758901C28DD28C32E2
:1002000075A0007590017133713351B3713371333F
:100210007133748051F07133900500711071337433
:10022000C051F0713390050B7110714BD294D2AF65
:10023000D2A97400758C00758A00758901C28DD2AF
:100240008C2090063090FD2090062090FD3090008C
:10025000C294C28CF5F0C2AFC2A9748051F0713360
:1002600090051A7110713374C051F07133900528E4
:1002700071107133E5F054F0C4711E7133E5F05420
:100280000F711E713390053271107133E58C54F08B
:10029000C4711E7133E58C540F711E7133E58A549D
:1002A000F0C4711E7133E58A540F711E71337144AD
:1002B00002020075A038C280C281D2827133C2822C
:1002C000713375A00CC280C281D2827133C2827137
:1002D0003375A001C280C281D2827133C282713370
:1002E00075A006C280C281D2827133C2827133226C
:1002F000F5A0C280C281D2827133C282713322F5ED
:10030000A0D280C281D2827133C282713371332212
:10031000C0E0E493600551FFA380F7D0E02220E322
:1003200002800620E20820E105243051FF22243714
:0503300051FF22C00096
:10033500C001780179FFD9FED8FAD001D000227129
:100345004B714B71522278A07159D8FC22785071AB
:1003550059D8FC22758C9E758A68758901C28DD223
:090365008C108D0280FBC28C2279
:10050000546F67676C6520535731005768656E20DC
:100510004C454420476C6F77730052656163746982
:100520006F6E2054696D6500436F756E742069733A
:040530002000200087
:00000001FF
