:0D0FC8004176652E2054656D703A202000A2
:100EBE00C1000635000000000000073B00002E00B8
:100ECE002C20001421000000000000000000000093
:090EDE000000000000000000000B
:100E8700E4F5A0C282C280C2817F38FE120FA4128D
:100E97000F327F067E00120FA4120F327F0C7E00E6
:100EA700120FA4120F327F017E00120FA4120F320D
:070EB7007F807E00020FA402
:040F32007F047E00BA
:100F3600E4FDFCC3ED9FEC9E5015E4FBFA0BBB00F1
:0F0F4600010ABA01F8BB7EF50DBD00010C80E475
:010F55002279
:100D27008E4D8F4E8B4F8A5089517C037DE8120A76
:100D3700127E007F64CFCDCFCECCCE120A12EF2425
:100D4700301209DEAE4DAF4E7C007D64120A127E72
:100D5700007F0ACFCDCFCECCCE120A12EF2430AB14
:100D67004FAA50A9519000011209F0AE4DAF4E7C29
:100D7700007D0A120A12ED2430AB4FAA50A95190F8
:050D870000020209F06A
:100FA400C280C281D2828FA07F0A7E00120F36C215
:020FB400822297
:100FB600D280C281D2828FA07F0A7E00120F36C2F3
:020FC600822285
:100EE8008B4D8A4E894FAB4DAA4EA94F1209C5604A
:100EF80013054FE54F7002054E14F91209C5FF128C
:050F08000FB680E2229B
:0C0FD50075C33343B104D2AF43C34022C4
:080DF1008F5C8E5B8D5A8C595A
:100DF900C2007810120B10E48FC53000FDA942C261
:100E090000AF5CAE5BAD5AAC597808120B108FC5B8
:100E19003000FDAB42C200E55CFF8FC53000FDAD7F
:100E290042EB7B00FA7E00E97810C333CE33CED88B
:100E3900F92BFFEE3AFE7C00EF2DFFEC3EFE3395D9
:030E4900E0FDFCCD
:010E4C002283
:03004B00020F8E13
:100F8E00C0E0C0D0E5C454F02480700585C542D2BF
:060F9E0000D0D0D0E032CB
:030FE100D2942285
:020D8C00AB07B3
:100D8E00E4F554F553755201F551EF75F010A47E4C
:100D9E00005470FFEE3395E0FDFCEF4480FFED78DC
:100DAE0008120B238F588E578D568C55E5542558A7
:100DBE00FFE5533557FEE5523556FDE5513555FCE9
:100DCE00C294120DF18F508E4F8D4E8C4DD294E5F4
:100DDE0050F550E54F5403F54FE4F54EF54DAE4F3B
:020DEE00AF5004
:010DF00022E0
:040CAC008C4D8D4E90
:100CB000E4F54FF550E55025E0FFE54F338F82F521
:100CC00083120A9DF55285F051E5502401FFE43569
:100CD0004FFEEF25E0FFEE338F82F583120A9DFD74
:100CE000E55025E0FFE54F338F82F583E5F08DF089
:100CF000120AD5E5502401FFE4354FFEEF25E0FF51
:100D0000EE338F82F583E5518552F0120AD50550F6
:100D1000E5507002054F6409454F7099900012E547
:070D20004D854EF0020AD5DB
:100F73007B007A007935120D2785353B85363C8514
:0B0F8300373E7B007A00793B020EE84D
:100E4D00E4F54DF54EFDFCED25E0FFEC338F82F51D
:100E5D0083120A9DAEF0254EF54EEE354DF54D0D36
:100E6D00BD00010CED640A4C70DDAE4DAF4E7C0043
:090E7D007D0A120A128E4D8F4EFF
:010E86002249
:100F56009000007580017F017E00120F36E4F58057
:0C0F6600120F36A3E58264FA458370E7A1
:010F7200225C
:100F0D008E4D8F4E75B003120F56E4F5B0120F567D
:100F1D00E54E2401FFE4354DFE7C007D04120A6789
:050F2D00AE04AF052237
:100B3600E4F543F544F545F546F5B0120FD5120F29
:100B4600E1120E877F07120D8C8E478F48AC47AD9A
:100B560048E412090B7B357A2979A5783E120800FC
:100B66008F4C8E4B8D4A8C49E4FFFE7D207C41AB39
:100B76004CAA4BA94AA8491208001209448E478F6D
:100B8600487B007A007921AD48AC47120CAC7F80D7
:100B96007E00120FA4AF34AE33120F73AF32AE31F4
:100BA600120F73AF30AE2F120F73E5444543705CDE
:100BB6007FC0FE120FA47BFF7A0F79C8120EE87B66
:100BC600007A007921120E4D8E478F48120F73E579
:100BD6004824ECFFE54734FFFEC3E5349FE5339E2A
:100BE6004012E5482414FFE43547FED3E5349FE57B
:100BF600339E400EAF44AE43120F0D8E438F440218
:100C06000B4A7FE87E03120F36020B4AAF44AE430F
:0A0C1600120F0D8E438F44020B4AAB
:10080000EC4D6011E8497017ED33EC3304600DE4F2
:10081000FCFFFEFD22E933E8330470F80209B01250
:10082000097B58046009E4CC248150062850090251
:1008300009BA2840030209B7C0E0EB4A7044B98006
:1008400006D0E0FB0209A6EF4E701CBD8008EBFF4E
:10085000EAFEE9FD80EBE98DF0A4FEE5F00208E98F
:10086000E9CDF9EAFEEBFFEF89F0A4FCE5F0CE89D3
:10087000F0A42EFFE435F0CD89F0A42DFEE435F090
:100880008067EF4E7005BD80D780C3EF8BF0A4ACBE
:10089000F0EE8BF0A42CFCE435F0F8EF8AF0A42CF9
:1008A000E5F038FCE433CB8DF0A42CFCE5F03BF80C
:1008B000EE8AF0A42CFCE5F038F8E433CF89F0A4FC
:1008C0002CFCE5F038CF3400CE89F0A42FFFE5F002
:1008D0003EFEE433C98DF0A42EFEE5F039CD8AF05A
:1008E000A42FFFE5F03EFEE43DFD33D0E0FB5007D2
:1008F0000BBB000F0209BAEC2CFCEF33FFEE33FE0A
:06090000ED33FD02099237
:1009060075F020800E75F010800575F0087D007E6C
:10091600007F003392D530D503120B02EC33401022
:10092600EF33FFEE33FEED33FDEC33FCD5F0ED2275
:0E093600E5F0247EA2D513CC92E7CDCEFF22B1
:10094400EDD2E7CD33EC3392D524814006E4FFFEAB
:10095400FDFC22FCE4CFCECDCC24E0501174FF800A
:10096400EDC3CC13CCCD13CDCE13CECF13CF0470A7
:07097400F030D5DE020B029A
:10097B00E9D2E7C933E833F892D5EDD2E7CD33ECC2
:07098B0033FC5002B2D5223B
:10099200EC30E7100FBF000C0EBE00080DBD0004C6
:1009A2000BEB6014A2D5EB13FCED92E7FD2274FF72
:1009B200FCFDFEFF22E480F8A2D574FF13FC7D80CB
:0309C200E480EFDF
:03000000020C20CF
:0C0C2000787FE4F6D8FD75815C020C675B
:1009C500BB010689828A83E0225002E722BBFE0230
:0909D500E32289828A83E4932263
:1009DE00BB010689828A83F0225002F722BBFE01F8
:0209EE00F322F2
:1009F000F8BB010DE58229F582E5833AF583E8F03D
:100A0000225006E92582C8F622BBFE05E92582C8E8
:020A1000F222D0
:100A1200BC000BBE0029EF8DF084FFADF022E4CCC8
:100A2200F875F008EF2FFFEE33FEEC33FCEE9DEC91
:100A3200984005FCEE9DFE0FD5F0E9E4CEFD22EDD7
:100A4200F8F5F0EE8420D21CFEADF075F008EF2F21
:100A5200FFED33FD4007985006D5F0F222C398FD12
:050A62000FD5F0EA22AF
:100A6700C2D5EC30E709B2D5E4C39DFDE49CFCEEAA
:100A770030E715B2D5E4C39FFFE49EFE120A12C306
:100A8700E49DFDE49CFC8003120A1230D507C3E401
:060A97009FFFE49EFE2219
:100A9D00BB0110E58229F582E5833AF583E0F5F097
:100AAD00A3E0225009E92582F886F008E622BBFE74
:100ABD000AE92582F8E2F5F008E222E5832AF583BA
:080ACD00E993F5F0A3E993227F
:100AD500F8BB0111E58229F582E5833AF583E8F053
:100AE500E5F0A3F0225009E92582C8F608A6F02210
:0D0AF500BBFE09E92582C8F2E5F008F222F7
:0E0B0200C3E49FFFE49EFEE49DFDE49CFC2204
:100B1000E8600FECC313FCED13FDEE13FEEF13FFC3
:030B2000D8F122E7
:100B2300E8600FEFC333FFEE33FEED33FDEC33FC30
:030B3300D8F122D4
:100C2C00020B36E493A3F8E493A34003F68001F29D
:100C3C0008DFF48029E493A3F85407240CC8C333C9
:100C4C00C4540F4420C8834004F456800146F6DF98
:100C5C00E4800B0102040810204080900EBEE47E5C
:100C6C00019360BCA3FF543F30E509541FFEE4938D
:100C7C00A360010ECF54C025E060A840B8E493A354
:100C8C00FAE493A3F8E493A3C8C582C8CAC583CA7F
:100C9C00F0A3C8C582C8CAC583CADFE9DEE780BE37
:010EE700000A
:00000001FF
